:020000040800F2
:1000000068DD0020F101000881090008E10800080E
:100010007D090008AF0200083D0F00080000000045
:10002000000000000000000000000000890C000833
:10003000B302000800000000350A00085D0D00084A
:100040000B0200080B0200080B0200080B0200085C
:100050000B0200080B0200080B0200080B0200084C
:100060000B0200080B0200080B0200080B0200083C
:100070000B0200080B0200080B0200080B0200082C
:100080000B0200080B0200080B0200080B0200081C
:100090000B0200080B0200080B0200080B0200080C
:1000A0000B0200080B0200080B0200080B020008FC
:1000B0000B0200080B0200080B0200080B020008EC
:1000C0000B0200080B0200080B0200080B020008DC
:1000D0000B0200080B020008DD0D00080B020008EF
:1000E0000B0200080B0200080B0200080B020008BC
:1000F0000B0200080B0200080B0200080B020008AC
:100100000B0200080B0200080B0200080B0200089B
:100110000B0200080B0200080B0200080B0200088B
:100120000B0200080B0200080B0200080B0200087B
:1001300000F002F800F03CF80AA090E8000C8244BD
:100140008344AAF10107DA4501D100F031F8AFF29A
:10015000090EBAE80F0013F0010F18BFFB1A43F0A5
:1001600001031847E410000004110000103A24BFF6
:1001700078C878C1FAD8520724BF30C830C144BF0C
:1001800004680C607047000000230024002500264E
:10019000103A28BF78C1FBD8520728BF30C148BFEA
:1001A0000B6070471FB501F046F81FBD10B510BDBC
:1001B00000F046F81146FFF7F5FF00F0DFFF00F012
:1001C00064F803B4FFF7F2FF03BC00F069F8000025
:1001D000EFF30980704780F309887047EFF30880D8
:1001E000704780F30888704740BA7047C0BA7047BC
:1001F0000948804709480047FEE7FEE7FEE7FEE7BB
:10020000FEE7FEE7FEE7FEE7FEE7FEE704480549F6
:10021000054A064B70470000650D000831010008D3
:10022000680D002068DD002068CD002068CD00202A
:10023000704770477047000000487047040D002069
:100240007546FFF7F9FFAE4605006946534620F0B4
:100250000700854618B020B5FFF7D8FFBDE820405D
:100260004FF000064FF000074FF000084FF0000B72
:1002700021F00701AC46ACE8C009ACE8C009ACE825
:10028000C009ACE8C0098D4670470446AFF3008052
:100290002046FFF796FF000000487047080D002039
:1002A00001491820ABBEFEE726000200704700BFE0
:1002B000FEE770470349086000BF0249096800294A
:1002C000FBD170472400002010B50146EFF31083E6
:1002D00003F0010272B619B10B884C881B1B00E0B9
:1002E000002398B202B962B610BD10B504463CB105
:1002F0002046FFF7E9FF08B9012010BD0020FCE708
:100300000120FAE710B504464CB12046FFF7DCFFA8
:100310002189884201D1012010BD0020FCE7012085
:10032000FAE770B5044600262046FFF7DEFFB8B9AD
:100330006088218990FBF1F201FB120061680E5C7C
:10034000EFF3108000F0010572B66088401C6080F9
:1003500060882189884201D10020608005B962B699
:10036000304670BD2DE9F04104460E460027E4B149
:100370002046FFF7C7FFC0B92088218990FBF1F222
:1003800001FB120061680E54EFF3108000F00105CC
:1003900072B62088401C208020882189884201D1A3
:1003A0000020208005B962B601273846BDE8F081FB
:1003B00010F0004F02D00349C86401E00149C86051
:1003C000704700000020024030B504460425224852
:1003D00084421FD24FF4302000F050F90546042D1E
:1003E00037D11E48006940F002001C4908610846E8
:1003F0004461006940F0400008614FF4302000F093
:100400003DF905461548006941F6FD71084013495C
:1004100008611EE04FF4302000F043F90546042D3A
:1004200017D10E48006D40F002000C4908650846DF
:100430004465006D40F0400008654FF4302000F046
:1004400030F905460548006D41F6FD710840034945
:100450000865284630BD0000FFFF07080020024065
:1004600004200C49C96801F00101012901D10120D2
:100470000EE00849C96811F0040F01D0022007E01E
:100480000449C96811F0100F01D0032000E00420D6
:10049000704700000020024004200C49C96C01F0A4
:1004A0000101012901D101200EE00849C96C11F0B8
:1004B000040F01D0022007E00449C96C11F0100FAD
:1004C00001D0032000E0042070470000002002401B
:1004D0000549096821F01001034A116011460968B5
:1004E000014311607047000000200240F0B504464F
:1004F0000D46042600275148844229D2F00200F01C
:10050000BDF80646042E1AD14D48006940F001009E
:100510004B4908612580F00200F0D6F80646042E0B
:100520000ED1A71C280C3880F00200F0CDF806464A
:100530004348006941F6FE710840414908617AE08C
:100540003F48006941F6FE7108403D49086172E08C
:100550003A48401C844244D14FF4005000F08EF8D9
:100560000646042E12D13648006940F00100344995
:1005700008612580F00200F081F8064630480069E5
:1005800041F6FE7108402E49086106E02C480069DA
:1005900041F6FE7108402A4908614FF4005000F00E
:1005A00080F80646042E14D12548006D40F0010065
:1005B00023490865A71C280C3880F00200F071F868
:1005C00006461F48006D41F6FE7108401C4908654B
:1005D00031E01B48006D41F6FE710840184908657E
:1005E00029E04FF4005000F05CF80646042E22D1BA
:1005F0001348006D40F00100114908652580F002A4
:1006000000F04FF80646042E0ED1A71C280C3880A7
:10061000F00200F046F806460948006D41F6FE710A
:1006200008400749086506E00548006D41F6FE717F
:100630000840034908653046F0BD0000FDFF07088B
:100640000020024001460020034A106800F03800F4
:10065000084310607047000000200240044805492C
:100660004860054848600248486403484864704749
:100670002301674500200240AB89EFCD00B502465B
:100680000423FFF7EDFE034603E0FFF7E9FE034610
:10069000521E012B01D1002AF7D102B905231846B9
:1006A00000BD00B502460423FFF7F6FE034603E053
:1006B000FFF7F2FE0346521E012B01D1002AF7D1AB
:1006C00002B90523184600BD00B502460423FFF712
:1006D000C7FE034603E0FFF7C3FE0346521E012B8D
:1006E00001D1002AF7D102B90523184600BD000048
:1006F00010B504462948844208D10121042000F0A5
:10070000ABF90021042000F0A7F946E02448844218
:1007100008D10121082000F09FF90021082000F0F5
:100720009BF93AE01F48844208D10121102000F0D3
:1007300093F90021102000F08FF92EE01A4884422E
:1007400008D10121202000F087F90021202000F0AD
:1007500083F922E01548844208D10121402000F0AD
:100760007BF90021402000F077F916E01048844220
:1007700008D10121802000F06FF90021802000F0D5
:100780006BF90AE00B48844207D10121801500F083
:1007900063F90021A01500F05FF910BD00080140C9
:1007A000000C0140001001400014014000180140FD
:1007B000001C0140002001402DE9F04102460025C7
:1007C0000026002000230024002791F803C00CF02D
:1007D0000F0591F803C01CF0100F03D091F802C070
:1007E0004CEA0505B1F800C01CF0FF0F31D01468C9
:1007F00000202BE04FF0010C0CFA00F3B1F800C020
:100800000CEA03069E4220D183004FF00F0C0CFA35
:1008100003F7BC4305FA03FC4CEA040491F803C057
:10082000BCF1280F06D14FF0010C0CFA00FCC2F805
:1008300014C00AE091F803C0BCF1480F05D14FF095
:10084000010C0CFA00FCC2F810C0401C0828D1D3DF
:100850001460B1F800C0BCF1FF0F34DD5468002013
:100860002EE000F1080C4FF0010808FA0CF3B1F883
:1008700000C00CEA03069E4221D183004FF00F0C0A
:100880000CFA03F7BC4305FA03FC4CEA040491F8A4
:1008900003C0BCF1280F05D100F1080C08FA0CF8D0
:1008A000C2F8148091F803C0BCF1480F07D100F1E1
:1008B000080C4FF0010808FA0CF8C2F81080401C30
:1008C0000828CED35460BDE8F081416170470161D2
:1008D0007047C2680A4201D0416100E0016170477F
:1008E00000BFFEE72DE9F04100F0C6F81D4D2C6871
:1008F000E0B2FF2802D11C4800F070FC200A1B491E
:1009000008701B4800684FF47A72B0FBF2F1B1F145
:10091000807F01D301201DE021F07F40401E4FF079
:10092000E022506150170F22002807DA13071F0E2C
:10093000104B00F00F06361F9F5503E013071E0EE5
:100940000D4B1E5400BF00204FF0E02290610720A5
:100950001061002008B100BFFEE700F012F8BDE80A
:10096000F081000000F80708008000083300002034
:100970000000002018ED00E000E400E000BFFEE70A
:10098000704710B54FF4E06000F040F800214FF0E0
:10099000006000F045F810BD70B5002100230F2263
:1009A000C4780CB3164C246804F4E064C4F5E06425
:1009B000210AC1F10403CA40447804FA03F184789F
:1009C0001440214309010F4C0678A155047804F026
:1009D0001F050124AC4005786D114FF0E02606EBB1
:1009E0008505C5F8004109E0047804F01F050124DD
:1009F000AC40054D0678761145F8264070BD0000E4
:100A00000CED00E000E400E080E100E00249014379
:100A1000024A1160704700000000FA050CED00E08A
:100A2000024A0A400243024B1A60704780FFFF1FD0
:100A300008ED00E07047000029B1064A92690243C0
:100A4000044B9A6104E0034A92698243014B9A6124
:100A5000704700000010024029B1064AD2680243E4
:100A6000044BDA6004E0034AD2688243014BDA6047
:100A7000704700000010024010B500F037F84FF446
:100A8000803000F08BF800F0E7F81749087008464E
:100A90000078012826D11020FFF71AFD0220FFF769
:100AA000D1FD002000F06EF8002000F0A9F84FF40E
:100AB000806000F099F84FF4E0114FF4803000F0BE
:100AC000B1F8012000F0A8F800BF392000F034F898
:100AD0000028FAD0022000F0B3F800BF00F04AF876
:100AE0000828FBD110BD0000320000200F4800682C
:100AF00040F001000D490860084640680C49084074
:100B00000A494860084600680A49084007490860E1
:100B10000846006820F4802008600846406820F4F9
:100B2000FE0048604FF41F008860704700100240CC
:100B30000000FFF8FFFFF6FE10B50146002200237B
:100B400000204A11012A02D1094C236806E0022A3A
:100B500002D1074C236A01E0054C636A01F01F02D1
:100B6000012494401C4201D0012000E0002010BD6F
:100B7000001002400248406800F00C00704700007E
:100B80000010024001460020034A506820F0F000A7
:100B90000843506070470000001002401149096886
:100BA00021F480310F4A11601146096821F4802137
:100BB0001160B0F5803F03D0B0F5802F0ED106E074
:100BC0000849096841F48031064A116007E0054987
:100BD000096841F4A021034A116000E000BF00BF92
:100BE000704700000010024001460020034A506890
:100BF00020F4E0600843506070470000001002409D
:100C000001460020034A506820F4605040EAC100C9
:100C100050607047001002400149086670470000AC
:100C20000000424202460020044B586820F47C1029
:100C300042EA01031843014B58607047001002401C
:100C400001460020034A506820F00300084350602A
:100C5000704700000010024070B5002400250026F7
:100C600000BF3120FFF768FF0646641CB4F5A06F93
:100C700001D0002EF5D03120FFF75EFF08B101252D
:100C800000E00025284670BD704710B500F002F85E
:100C900010BD0000002100202E4A126842F480326C
:100CA0002C4B1A6000BF2B4A126802F40030491C1A
:100CB00010B9B1F5A06FF6D1264A126812F4003FC0
:100CC00001D0012000E00020012842D1224A126810
:100CD00042F01002204B1A601A46126822F00302FA
:100CE0001A601A46126842F002021A60194A5268E3
:100CF000184B5A601A4652685A601A46526842F4B3
:100D000080625A601A46526822F47C125A601A466F
:100D1000526842F4E8125A601A46126842F0807231
:100D20001A6000BF0B4A126812F0007FFAD0094A1D
:100D3000526822F00302074B5A601A46526842F08A
:100D400002025A6000BF034A526802F00C02082AED
:100D5000F9D17047001002400020024010B500F0A9
:100D600031F810BD10B51348006840F0010011497A
:100D7000086008464068104908400E494860084627
:100D800000680E4908400B4908600846006820F4D6
:100D9000802008600846406820F4FE0048604FF458
:100DA0001F008860FFF771FF4FF000600449086082
:100DB00010BD0000001002400000FFF8FFFFF6FE2B
:100DC00008ED00E00448006820B103480068401EB8
:100DD00001490860704700002400002010B540F26F
:100DE00025510B4800F023F808B100F0F7F808216E
:100DF000074800F00FF810B1054800F067F840F21E
:100E00002771034800F013F808B100F0F3F810BDA3
:100E10000044004002460020B1F5007F00D100BF31
:100E200013880B4201D0012000E00020704770B50C
:100E300002460024002300250020A1F510666A3E2A
:100E400000D100BFC1F3421501F01F03012606FACD
:100E500003F3012D02D19689334006E0022D02D121
:100E6000168A334001E0968A33400C12012606FAB6
:100E700004F41688344013B10CB1012000E00020C6
:100E800070BDF0B503460024002600250020A1F522
:100E900010676A3F00D100BF1846C1F3421401F049
:100EA0001F06012707FA06F5012C01D10C3004E0DA
:100EB000022C01D1103000E014301AB107682F4322
:100EC000076002E00768AF430760F0BD014688880D
:100ED000C0F308007047C1F3080282807047000029
:100EE00017E011490988114A02EBC120104900F0AE
:100EF0005DF90D4909880F4A02EBC1200C4900F049
:100F000077F909480088401C07490880022000F052
:100F10001FF9094801780078401E074A107000291F
:100F2000DFD100F00DF800002000002000000408D0
:100F300054000020008000083300002000BFFEE7BE
:100F400008B51F4C2046FFF73FFA1E4908706FF4A2
:100F5000803508460078042810D108E0294620464C
:100F6000FFF7C4FA17490870241D4FF0FF351648E3
:100F7000844203D2134800780428EFD01348FFF7C7
:100F8000B7FB1348FFF7B4FB25208DF800000020C5
:100F90008DF803006846FFF7FFFCFFF7A7FD72B668
:100FA00000BF0C48006800F4E0600B490843001DD6
:100FB00008490860BFF3408F00BF00BFFEE7000094
:100FC00000F8070830000020000008080014014065
:100FD000000801400CED00E00000FA0510B50348E0
:100FE0000088C1B20248FFF7BDF910BD04440040BB
:100FF000AC0C002010B50B48FFF777F940B9094851
:10100000FFF78FF9044621460748FFF764FF08E021
:10101000002240F227710448FFF733FF0020034904
:10102000087010BDB80C00200044004042000020B1
:1010300008B501212020FFF7FFFC01212020FFF748
:10104000FBFC01210820FFF7F7FC01210820FFF736
:10105000F3FC01214020FFF7EFFC01214020FFF7C6
:10106000EBFC01211020FFF7E7FC4020ADF8000069
:1010700010208DF8030003208DF8020069462548F2
:10108000FFF79AFB8020ADF8000010208DF80300D8
:1010900003208DF8020069461E48FFF78DFB0120F2
:1010A000ADF8000010208DF8030003208DF8020039
:1010B00069461948FFF780FB0220ADF800001020B8
:1010C0008DF8030003208DF8020069461248FFF7EF
:1010D00073FB0120ADF8000004208DF80300694681
:1010E0000E48FFF769FB0220ADF8000004208DF8E0
:1010F000030069460948FFF75FFB4FF40050ADF865
:10110000000004208DF8030069460548FFF754FBF2
:1011100008BD000000140140000C0140001801400F
:101120000010014010B50446012C04D1802107486D
:10113000FFF7CDFB09E024B980210448FFF7C5FB88
:1011400003E080210148FFF7C4FB10BD00140140FB
:1011500010B50446012C04D140210748FFF7B7FB26
:1011600009E024B940210448FFF7AFFB03E0402128
:101170000148FFF7AEFB10BD00140140FFF7B2FBC2
:10118000FFF756FF4FF47A70FFF794F80120FFF74E
:10119000C9FF0120FFF7DCFFFFF760FA3520FFF7FA
:1011A00007F901E0FFF79CFEFCE7000010B5002204
:1011B000094B19600BE00368074C24682360064B59
:1011C0001B681B1D044C2360001D131D9AB2B2F551
:1011D000006FF0DB10BD00003400002070B5044645
:1011E000002665682E462068FEF7FBFFB04770BDFD
:1011F0002DE9F04704460F464FF0000825462046EB
:10120000FFF7E2F80646042E12D10BE057F80890DB
:1012100049462846FFF76AF906462D1D08F10400E5
:101220001FFA80F804F50060854201D2042EEDD04B
:101230003046BDE8F08710B5FFF72EF84FF00001FB
:10124000016010BD320978556812000800000020C6
:10125000480000006C010008B0120008480000209F
:1012600020DD00008801000800A24A040000000000
:101270000000000001020304060708090000000046
:10128000000000000000000000000000000000005E
:10129000000000000000000000000000000000004E
:1012A000000000000000000000000000000000003E
:0400000508000131BD
:00000001FF
